{
  "contractName": "ERLCNativeSwap",
  "abi": [
    {
      "inputs": [
        {
          "internalType": "string",
          "name": "name",
          "type": "string"
        },
        {
          "internalType": "string",
          "name": "symbol",
          "type": "string"
        },
        {
          "internalType": "uint8",
          "name": "decimals",
          "type": "uint8"
        },
        {
          "internalType": "uint256",
          "name": "softcap",
          "type": "uint256"
        },
        {
          "internalType": "address[]",
          "name": "admins",
          "type": "address[]"
        },
        {
          "internalType": "address[]",
          "name": "kycadmins",
          "type": "address[]"
        }
      ],
      "stateMutability": "nonpayable",
      "type": "constructor"
    },
    {
      "anonymous": false,
      "inputs": [
        {
          "indexed": true,
          "internalType": "address",
          "name": "owner",
          "type": "address"
        },
        {
          "indexed": true,
          "internalType": "address",
          "name": "spender",
          "type": "address"
        },
        {
          "indexed": false,
          "internalType": "uint256",
          "name": "value",
          "type": "uint256"
        }
      ],
      "name": "Approval",
      "type": "event"
    },
    {
      "anonymous": false,
      "inputs": [
        {
          "indexed": true,
          "internalType": "bytes32",
          "name": "role",
          "type": "bytes32"
        },
        {
          "indexed": true,
          "internalType": "bytes32",
          "name": "previousAdminRole",
          "type": "bytes32"
        },
        {
          "indexed": true,
          "internalType": "bytes32",
          "name": "newAdminRole",
          "type": "bytes32"
        }
      ],
      "name": "RoleAdminChanged",
      "type": "event"
    },
    {
      "anonymous": false,
      "inputs": [
        {
          "indexed": true,
          "internalType": "bytes32",
          "name": "role",
          "type": "bytes32"
        },
        {
          "indexed": true,
          "internalType": "address",
          "name": "account",
          "type": "address"
        },
        {
          "indexed": true,
          "internalType": "address",
          "name": "sender",
          "type": "address"
        }
      ],
      "name": "RoleGranted",
      "type": "event"
    },
    {
      "anonymous": false,
      "inputs": [
        {
          "indexed": true,
          "internalType": "bytes32",
          "name": "role",
          "type": "bytes32"
        },
        {
          "indexed": true,
          "internalType": "address",
          "name": "account",
          "type": "address"
        },
        {
          "indexed": true,
          "internalType": "address",
          "name": "sender",
          "type": "address"
        }
      ],
      "name": "RoleRevoked",
      "type": "event"
    },
    {
      "anonymous": false,
      "inputs": [
        {
          "indexed": false,
          "internalType": "uint256",
          "name": "id",
          "type": "uint256"
        }
      ],
      "name": "Snapshot",
      "type": "event"
    },
    {
      "anonymous": false,
      "inputs": [],
      "name": "SoftCapReached",
      "type": "event"
    },
    {
      "anonymous": false,
      "inputs": [
        {
          "indexed": true,
          "internalType": "address",
          "name": "from",
          "type": "address"
        },
        {
          "indexed": true,
          "internalType": "address",
          "name": "to",
          "type": "address"
        },
        {
          "indexed": false,
          "internalType": "uint256",
          "name": "value",
          "type": "uint256"
        }
      ],
      "name": "Transfer",
      "type": "event"
    },
    {
      "inputs": [],
      "name": "ConversionRate",
      "outputs": [
        {
          "internalType": "uint256",
          "name": "",
          "type": "uint256"
        }
      ],
      "stateMutability": "view",
      "type": "function"
    },
    {
      "inputs": [],
      "name": "DEFAULT_ADMIN_ROLE",
      "outputs": [
        {
          "internalType": "bytes32",
          "name": "",
          "type": "bytes32"
        }
      ],
      "stateMutability": "view",
      "type": "function"
    },
    {
      "inputs": [],
      "name": "KYC_ADMIN_ROLE",
      "outputs": [
        {
          "internalType": "bytes32",
          "name": "",
          "type": "bytes32"
        }
      ],
      "stateMutability": "view",
      "type": "function"
    },
    {
      "inputs": [],
      "name": "KYC_MEMBER_ROLE",
      "outputs": [
        {
          "internalType": "bytes32",
          "name": "",
          "type": "bytes32"
        }
      ],
      "stateMutability": "view",
      "type": "function"
    },
    {
      "inputs": [
        {
          "internalType": "address",
          "name": "owner",
          "type": "address"
        },
        {
          "internalType": "address",
          "name": "spender",
          "type": "address"
        }
      ],
      "name": "allowance",
      "outputs": [
        {
          "internalType": "uint256",
          "name": "",
          "type": "uint256"
        }
      ],
      "stateMutability": "view",
      "type": "function"
    },
    {
      "inputs": [
        {
          "internalType": "address",
          "name": "spender",
          "type": "address"
        },
        {
          "internalType": "uint256",
          "name": "amount",
          "type": "uint256"
        }
      ],
      "name": "approve",
      "outputs": [
        {
          "internalType": "bool",
          "name": "",
          "type": "bool"
        }
      ],
      "stateMutability": "nonpayable",
      "type": "function"
    },
    {
      "inputs": [
        {
          "internalType": "address",
          "name": "spender",
          "type": "address"
        },
        {
          "internalType": "uint256",
          "name": "amount",
          "type": "uint256"
        },
        {
          "internalType": "bytes",
          "name": "extraData",
          "type": "bytes"
        }
      ],
      "name": "approveAndCall",
      "outputs": [
        {
          "internalType": "bool",
          "name": "",
          "type": "bool"
        }
      ],
      "stateMutability": "nonpayable",
      "type": "function"
    },
    {
      "inputs": [
        {
          "internalType": "address",
          "name": "account",
          "type": "address"
        }
      ],
      "name": "balanceOf",
      "outputs": [
        {
          "internalType": "uint256",
          "name": "",
          "type": "uint256"
        }
      ],
      "stateMutability": "view",
      "type": "function"
    },
    {
      "inputs": [
        {
          "internalType": "address",
          "name": "account",
          "type": "address"
        },
        {
          "internalType": "uint256",
          "name": "snapshotId",
          "type": "uint256"
        }
      ],
      "name": "balanceOfAt",
      "outputs": [
        {
          "internalType": "uint256",
          "name": "",
          "type": "uint256"
        }
      ],
      "stateMutability": "view",
      "type": "function"
    },
    {
      "inputs": [],
      "name": "decimals",
      "outputs": [
        {
          "internalType": "uint8",
          "name": "",
          "type": "uint8"
        }
      ],
      "stateMutability": "view",
      "type": "function"
    },
    {
      "inputs": [
        {
          "internalType": "address",
          "name": "spender",
          "type": "address"
        },
        {
          "internalType": "uint256",
          "name": "subtractedValue",
          "type": "uint256"
        }
      ],
      "name": "decreaseAllowance",
      "outputs": [
        {
          "internalType": "bool",
          "name": "",
          "type": "bool"
        }
      ],
      "stateMutability": "nonpayable",
      "type": "function"
    },
    {
      "inputs": [
        {
          "internalType": "address",
          "name": "from",
          "type": "address"
        },
        {
          "internalType": "address",
          "name": "to",
          "type": "address"
        },
        {
          "internalType": "uint256",
          "name": "",
          "type": "uint256"
        }
      ],
      "name": "detectTransferRestriction",
      "outputs": [
        {
          "internalType": "uint8",
          "name": "",
          "type": "uint8"
        }
      ],
      "stateMutability": "view",
      "type": "function"
    },
    {
      "inputs": [
        {
          "internalType": "bytes32",
          "name": "role",
          "type": "bytes32"
        }
      ],
      "name": "getRoleAdmin",
      "outputs": [
        {
          "internalType": "bytes32",
          "name": "",
          "type": "bytes32"
        }
      ],
      "stateMutability": "view",
      "type": "function"
    },
    {
      "inputs": [
        {
          "internalType": "bytes32",
          "name": "role",
          "type": "bytes32"
        },
        {
          "internalType": "uint256",
          "name": "index",
          "type": "uint256"
        }
      ],
      "name": "getRoleMember",
      "outputs": [
        {
          "internalType": "address",
          "name": "",
          "type": "address"
        }
      ],
      "stateMutability": "view",
      "type": "function"
    },
    {
      "inputs": [
        {
          "internalType": "bytes32",
          "name": "role",
          "type": "bytes32"
        }
      ],
      "name": "getRoleMemberCount",
      "outputs": [
        {
          "internalType": "uint256",
          "name": "",
          "type": "uint256"
        }
      ],
      "stateMutability": "view",
      "type": "function"
    },
    {
      "inputs": [
        {
          "internalType": "address[]",
          "name": "accounts",
          "type": "address[]"
        }
      ],
      "name": "grantKYC",
      "outputs": [],
      "stateMutability": "nonpayable",
      "type": "function"
    },
    {
      "inputs": [
        {
          "internalType": "bytes32",
          "name": "role",
          "type": "bytes32"
        },
        {
          "internalType": "address",
          "name": "account",
          "type": "address"
        }
      ],
      "name": "grantRole",
      "outputs": [],
      "stateMutability": "nonpayable",
      "type": "function"
    },
    {
      "inputs": [
        {
          "internalType": "bytes32",
          "name": "role",
          "type": "bytes32"
        },
        {
          "internalType": "address",
          "name": "account",
          "type": "address"
        }
      ],
      "name": "hasRole",
      "outputs": [
        {
          "internalType": "bool",
          "name": "",
          "type": "bool"
        }
      ],
      "stateMutability": "view",
      "type": "function"
    },
    {
      "inputs": [
        {
          "internalType": "address",
          "name": "spender",
          "type": "address"
        },
        {
          "internalType": "uint256",
          "name": "addedValue",
          "type": "uint256"
        }
      ],
      "name": "increaseAllowance",
      "outputs": [
        {
          "internalType": "bool",
          "name": "",
          "type": "bool"
        }
      ],
      "stateMutability": "nonpayable",
      "type": "function"
    },
    {
      "inputs": [
        {
          "internalType": "address",
          "name": "account",
          "type": "address"
        }
      ],
      "name": "isKYC",
      "outputs": [
        {
          "internalType": "bool",
          "name": "",
          "type": "bool"
        }
      ],
      "stateMutability": "view",
      "type": "function"
    },
    {
      "inputs": [
        {
          "internalType": "uint8",
          "name": "restrictionCode",
          "type": "uint8"
        }
      ],
      "name": "messageForTransferRestriction",
      "outputs": [
        {
          "internalType": "string",
          "name": "",
          "type": "string"
        }
      ],
      "stateMutability": "view",
      "type": "function"
    },
    {
      "inputs": [],
      "name": "name",
      "outputs": [
        {
          "internalType": "string",
          "name": "",
          "type": "string"
        }
      ],
      "stateMutability": "view",
      "type": "function"
    },
    {
      "inputs": [
        {
          "internalType": "bytes32",
          "name": "role",
          "type": "bytes32"
        },
        {
          "internalType": "address",
          "name": "account",
          "type": "address"
        }
      ],
      "name": "renounceRole",
      "outputs": [],
      "stateMutability": "nonpayable",
      "type": "function"
    },
    {
      "inputs": [
        {
          "internalType": "address[]",
          "name": "accounts",
          "type": "address[]"
        }
      ],
      "name": "revokeKYC",
      "outputs": [],
      "stateMutability": "nonpayable",
      "type": "function"
    },
    {
      "inputs": [
        {
          "internalType": "bytes32",
          "name": "role",
          "type": "bytes32"
        },
        {
          "internalType": "address",
          "name": "account",
          "type": "address"
        }
      ],
      "name": "revokeRole",
      "outputs": [],
      "stateMutability": "nonpayable",
      "type": "function"
    },
    {
      "inputs": [],
      "name": "snapshot",
      "outputs": [
        {
          "internalType": "uint256",
          "name": "",
          "type": "uint256"
        }
      ],
      "stateMutability": "nonpayable",
      "type": "function"
    },
    {
      "inputs": [],
      "name": "softCap",
      "outputs": [
        {
          "internalType": "uint256",
          "name": "",
          "type": "uint256"
        }
      ],
      "stateMutability": "view",
      "type": "function"
    },
    {
      "inputs": [],
      "name": "softCapReached",
      "outputs": [
        {
          "internalType": "bool",
          "name": "",
          "type": "bool"
        }
      ],
      "stateMutability": "view",
      "type": "function"
    },
    {
      "inputs": [],
      "name": "symbol",
      "outputs": [
        {
          "internalType": "string",
          "name": "",
          "type": "string"
        }
      ],
      "stateMutability": "view",
      "type": "function"
    },
    {
      "inputs": [],
      "name": "totalSupply",
      "outputs": [
        {
          "internalType": "uint256",
          "name": "",
          "type": "uint256"
        }
      ],
      "stateMutability": "view",
      "type": "function"
    },
    {
      "inputs": [
        {
          "internalType": "uint256",
          "name": "snapshotId",
          "type": "uint256"
        }
      ],
      "name": "totalSupplyAt",
      "outputs": [
        {
          "internalType": "uint256",
          "name": "",
          "type": "uint256"
        }
      ],
      "stateMutability": "view",
      "type": "function"
    },
    {
      "inputs": [
        {
          "internalType": "address",
          "name": "recipient",
          "type": "address"
        },
        {
          "internalType": "uint256",
          "name": "amount",
          "type": "uint256"
        }
      ],
      "name": "transfer",
      "outputs": [
        {
          "internalType": "bool",
          "name": "",
          "type": "bool"
        }
      ],
      "stateMutability": "nonpayable",
      "type": "function"
    },
    {
      "inputs": [
        {
          "internalType": "address",
          "name": "receiver",
          "type": "address"
        },
        {
          "internalType": "uint256",
          "name": "amount",
          "type": "uint256"
        },
        {
          "internalType": "bytes",
          "name": "data",
          "type": "bytes"
        }
      ],
      "name": "transferAndCall",
      "outputs": [
        {
          "internalType": "bool",
          "name": "",
          "type": "bool"
        }
      ],
      "stateMutability": "nonpayable",
      "type": "function"
    },
    {
      "inputs": [
        {
          "internalType": "address",
          "name": "sender",
          "type": "address"
        },
        {
          "internalType": "address",
          "name": "recipient",
          "type": "address"
        },
        {
          "internalType": "uint256",
          "name": "amount",
          "type": "uint256"
        }
      ],
      "name": "transferFrom",
      "outputs": [
        {
          "internalType": "bool",
          "name": "",
          "type": "bool"
        }
      ],
      "stateMutability": "nonpayable",
      "type": "function"
    },
    {
      "stateMutability": "payable",
      "type": "receive"
    },
    {
      "inputs": [],
      "name": "deposit",
      "outputs": [],
      "stateMutability": "payable",
      "type": "function"
    },
    {
      "inputs": [
        {
          "internalType": "uint256",
          "name": "amount",
          "type": "uint256"
        }
      ],
      "name": "withdraw",
      "outputs": [],
      "stateMutability": "nonpayable",
      "type": "function"
    },
    {
      "inputs": [],
      "name": "recover",
      "outputs": [],
      "stateMutability": "nonpayable",
      "type": "function"
    },
    {
      "inputs": [
        {
          "internalType": "address",
          "name": "token",
          "type": "address"
        },
        {
          "internalType": "address",
          "name": "to",
          "type": "address"
        }
      ],
      "name": "claim",
      "outputs": [],
      "stateMutability": "nonpayable",
      "type": "function"
    }
  ],
  "bytecode": "0x60a06040523480156200001157600080fd5b506040516200319638038062003196833981810160405260c08110156200003757600080fd5b81019080805160405193929190846401000000008211156200005857600080fd5b9083019060208201858111156200006e57600080fd5b82516401000000008111828201881017156200008957600080fd5b82525081516020918201929091019080838360005b83811015620000b85781810151838201526020016200009e565b50505050905090810190601f168015620000e65780820380516001836020036101000a031916815260200191505b50604052602001805160405193929190846401000000008211156200010a57600080fd5b9083019060208201858111156200012057600080fd5b82516401000000008111828201881017156200013b57600080fd5b82525081516020918201929091019080838360005b838110156200016a57818101518382015260200162000150565b50505050905090810190601f168015620001985780820380516001836020036101000a031916815260200191505b50604081815260208301519083015160609093018051919593949293929184640100000000821115620001ca57600080fd5b908301906020820185811115620001e057600080fd5b8251866020820283011164010000000082111715620001fe57600080fd5b82525081516020918201928201910280838360005b838110156200022d57818101518382015260200162000213565b50505050905001604052602001805160405193929190846401000000008211156200025757600080fd5b9083019060208201858111156200026d57600080fd5b82518660208202830111640100000000821117156200028b57600080fd5b82525081516020918201928201910280838360005b83811015620002ba578181015183820152602001620002a0565b50505050905001604052505050858584848482828287878160039080519060200190620002e992919062000674565b508051620002ff90600490602084019062000674565b50506005805460ff19166012179055506200034a7fce55f595624c86c7e93aa4cf15cb4a958406550ae728a9b7ffda71a7d62eca736000805160206200317683398151915262000411565b60005b82518110156200038957620003806000801b8483815181106200036c57fe5b60200260200101516200046360201b60201c565b6001016200034d565b5060005b8151811015620003c157620003b8600080516020620031768339815191528383815181106200036c57fe5b6001016200038d565b50505060805250506007805460ff1916905550620003f491506012905060ff861662000473602090811b620016a417901c565b600a0a600c556200040584620004c6565b50505050505062000710565b600082815260066020526040808220600201549051839285917fbd79b86ffe0ab8e8776151514217cd7cacd52c909f66475c3af44e129f0b00ff9190a460009182526006602052604090912060020155565b6200046f8282620004dc565b5050565b6000620004bd83836040518060400160405280601e81526020017f536166654d6174683a207375627472616374696f6e206f766572666c6f7700008152506200055760201b60201c565b90505b92915050565b6005805460ff191660ff92909216919091179055565b600082815260066020908152604090912062000503918390620016e6620005f2821b17901c565b156200046f576200051362000609565b6001600160a01b0316816001600160a01b0316837f2f8788117e7eff1d82e926ec794901d17c78024a50270940304540a733656f0d60405160405180910390a45050565b60008184841115620005ea5760405162461bcd60e51b81526004018080602001828103825283818151815260200191508051906020019080838360005b83811015620005ae57818101518382015260200162000594565b50505050905090810190601f168015620005dc5780820380516001836020036101000a031916815260200191505b509250505060405180910390fd5b505050900390565b6000620004bd836001600160a01b0384166200060d565b3390565b60006200061b83836200065c565b6200065357508154600181810184556000848152602080822090930184905584548482528286019093526040902091909155620004c0565b506000620004c0565b60009081526001919091016020526040902054151590565b828054600181600116156101000203166002900490600052602060002090601f016020900481019282601f10620006b757805160ff1916838001178555620006e7565b82800160010185558215620006e7579182015b82811115620006e7578251825591602001919060010190620006ca565b50620006f5929150620006f9565b5090565b5b80821115620006f55760008155600101620006fa565b608051612a46620007306000398061119652806120725250612a466000f3fe6080604052600436106102295760003560e01c806370a0823111610123578063a217fddf116100ab578063ce7460241161006f578063ce746024146109b8578063d0e30db0146109cd578063d4ce1415146109d5578063d547741f14610a18578063dd62ed3e14610a5157610238565b8063a217fddf14610877578063a457c2d71461088c578063a9059cbb146108c5578063ca15c873146108fe578063cae9ca511461092857610238565b806391d14854116100f257806391d14854146107b757806395d89b41146107f05780639711715a14610805578063981b24d01461081a5780639944f5181461084457610238565b806370a08231146106f65780637f4ab1dd146107295780639010d07c14610756578063906a26e0146107a257610238565b80632b9edee9116101b1578063395093511161017557806339509351146105645780634000aea01461059d5780634209f9ae1461062d5780634a4e629c146106425780634ee2cd7e146106bd57610238565b80632b9edee9146104885780632e1a7d4d1461049d5780632f2ff15d146104c7578063313ce5671461050057806336568abe1461052b57610238565b806318f33caf116101f857806318f33caf1461035057806321c0b342146103cb57806323b872dd14610406578063248a9ca31461044957806327e9083b1461047357610238565b806302d7fd921461023d57806306fdde0314610264578063095ea7b3146102ee57806318160ddd1461033b57610238565b3661023857610236610a8c565b005b600080fd5b34801561024957600080fd5b50610252610aca565b60408051918252519081900360200190f35b34801561027057600080fd5b50610279610aee565b6040805160208082528351818301528351919283929083019185019080838360005b838110156102b357818101518382015260200161029b565b50505050905090810190601f1680156102e05780820380516001836020036101000a031916815260200191505b509250505060405180910390f35b3480156102fa57600080fd5b506103276004803603604081101561031157600080fd5b506001600160a01b038135169060200135610b84565b604080519115158252519081900360200190f35b34801561034757600080fd5b50610252610ba2565b34801561035c57600080fd5b506102366004803603602081101561037357600080fd5b810190602081018135600160201b81111561038d57600080fd5b82018360208201111561039f57600080fd5b803590602001918460208302840111600160201b831117156103c057600080fd5b509092509050610ba8565b3480156103d757600080fd5b50610236600480360360408110156103ee57600080fd5b506001600160a01b0381358116916020013516610bf3565b34801561041257600080fd5b506103276004803603606081101561042957600080fd5b506001600160a01b03813581169160208101359091169060400135610cc6565b34801561045557600080fd5b506102526004803603602081101561046c57600080fd5b5035610d4e565b34801561047f57600080fd5b50610252610d66565b34801561049457600080fd5b50610327610d78565b3480156104a957600080fd5b50610236600480360360208110156104c057600080fd5b5035610d81565b3480156104d357600080fd5b50610236600480360360408110156104ea57600080fd5b50803590602001356001600160a01b0316610dae565b34801561050c57600080fd5b50610515610e1a565b6040805160ff9092168252519081900360200190f35b34801561053757600080fd5b506102366004803603604081101561054e57600080fd5b50803590602001356001600160a01b0316610e23565b34801561057057600080fd5b506103276004803603604081101561058757600080fd5b506001600160a01b038135169060200135610e84565b3480156105a957600080fd5b50610327600480360360608110156105c057600080fd5b6001600160a01b0382351691602081013591810190606081016040820135600160201b8111156105ef57600080fd5b82018360208201111561060157600080fd5b803590602001918460018302840111600160201b8311171561062257600080fd5b509092509050610ed2565b34801561063957600080fd5b50610252610ff9565b34801561064e57600080fd5b506102366004803603602081101561066557600080fd5b810190602081018135600160201b81111561067f57600080fd5b82018360208201111561069157600080fd5b803590602001918460208302840111600160201b831117156106b257600080fd5b509092509050610fff565b3480156106c957600080fd5b50610252600480360360408110156106e057600080fd5b506001600160a01b038135169060200135611045565b34801561070257600080fd5b506102526004803603602081101561071957600080fd5b50356001600160a01b031661108e565b34801561073557600080fd5b506102796004803603602081101561074c57600080fd5b503560ff166110a9565b34801561076257600080fd5b506107866004803603604081101561077957600080fd5b508035906020013561117c565b604080516001600160a01b039092168252519081900360200190f35b3480156107ae57600080fd5b50610252611194565b3480156107c357600080fd5b50610327600480360360408110156107da57600080fd5b50803590602001356001600160a01b03166111b8565b3480156107fc57600080fd5b506102796111d0565b34801561081157600080fd5b50610252611231565b34801561082657600080fd5b506102526004803603602081101561083d57600080fd5b50356112d0565b34801561085057600080fd5b506103276004803603602081101561086757600080fd5b50356001600160a01b0316611300565b34801561088357600080fd5b5061025261131a565b34801561089857600080fd5b50610327600480360360408110156108af57600080fd5b506001600160a01b03813516906020013561131f565b3480156108d157600080fd5b50610327600480360360408110156108e857600080fd5b506001600160a01b038135169060200135611387565b34801561090a57600080fd5b506102526004803603602081101561092157600080fd5b503561139b565b34801561093457600080fd5b506103276004803603606081101561094b57600080fd5b6001600160a01b0382351691602081013591810190606081016040820135600160201b81111561097a57600080fd5b82018360208201111561098c57600080fd5b803590602001918460018302840111600160201b831117156109ad57600080fd5b5090925090506113b2565b3480156109c457600080fd5b506102366114df565b610236610a8c565b3480156109e157600080fd5b50610515600480360360608110156109f857600080fd5b506001600160a01b038135811691602081013590911690604001356115be565b348015610a2457600080fd5b5061023660048036036040811015610a3b57600080fd5b50803590602001356001600160a01b0316611620565b348015610a5d57600080fd5b5061025260048036036040811015610a7457600080fd5b506001600160a01b0381358116916020013516611679565b610aaa610a976116fb565b600c54610aa59034906116ff565b611741565b610ac8610ab56116fb565b600c54610ac390349061174b565b61178d565b565b7f811427a0fa4932aef534bba16bc34e9b7b2d7d2a79c475fca1765f6cc1faebea81565b60038054604080516020601f6002600019610100600188161502019095169490940493840181900481028201810190925282815260609390929091830182828015610b7a5780601f10610b4f57610100808354040283529160200191610b7a565b820191906000526020600020905b815481529060010190602001808311610b5d57829003601f168201915b5050505050905090565b6000610b98610b916116fb565b8484611872565b5060015b92915050565b60025490565b60005b81811015610bee57610be66000805160206128ea833981519152848484818110610bd157fe5b905060200201356001600160a01b0316610dae565b600101610bab565b505050565b6000610bfd6116fb565b6040518060400160405280600a81526020016937b7363c96b0b236b4b760b11b815250610c2a83836111b8565b8190610cb45760405162461bcd60e51b81526004018080602001828103825283818151815260200191508051906020019080838360005b83811015610c79578181015183820152602001610c61565b50505050905090810190601f168015610ca65780820380516001836020036101000a031916815260200191505b509250505060405180910390fd5b50610cbf858561195e565b5050505050565b6000610cd38484846119f6565b610d4384610cdf6116fb565b610d3e8560405180606001604052806028815260200161292b602891396001600160a01b038a16600090815260016020526040812090610d1d6116fb565b6001600160a01b031681526020810191909152604001600020549190611b51565b611872565b5060015b9392505050565b6000818152600660205260409020600201545b919050565b6000805160206128ea83398151915281565b60075460ff1681565b610d92610d8c6116fb565b82611bab565b610dab610d9d6116fb565b600c54610ac3908490611ca7565b50565b600082815260066020526040902060020154610dd190610dcc6116fb565b6111b8565b610e0c5760405162461bcd60e51b815260040180806020018281038252602f8152602001806127e7602f913960400191505060405180910390fd5b610e168282611d00565b5050565b60055460ff1690565b610e2b6116fb565b6001600160a01b0316816001600160a01b031614610e7a5760405162461bcd60e51b815260040180806020018281038252602f8152602001806129e2602f913960400191505060405180910390fd5b610e168282611d69565b6000610b98610e916116fb565b84610d3e8560016000610ea26116fb565b6001600160a01b03908116825260208083019390935260409182016000908120918c168152925290205490611dd2565b6000610ede8585611387565b50846001600160a01b031663a4c0ed36610ef66116fb565b8686866040518563ffffffff1660e01b815260040180856001600160a01b03168152602001848152602001806020018281038252848482818152602001925080828437600081840152601f19601f82011690508083019250505095505050505050602060405180830381600087803b158015610f7157600080fd5b505af1158015610f85573d6000803e3d6000fd5b505050506040513d6020811015610f9b57600080fd5b5051610fee576040805162461bcd60e51b815260206004820152601c60248201527f7472616e736665722d726566757365642d62792d726563656976657200000000604482015290519081900360640190fd5b506001949350505050565b600c5481565b60005b81811015610bee5761103d6000805160206128ea83398151915284848481811061102857fe5b905060200201356001600160a01b0316611620565b600101611002565b6001600160a01b03821660009081526008602052604081208190819061106c908590611e2c565b91509150816110835761107e8561108e565b611085565b805b95945050505050565b6001600160a01b031660009081526020819052604090205490565b606060ff8216600114156110e9575060408051808201909152601581527453656e646572206973206d697373696e67204b594360581b6020820152610d61565b60ff82166002141561112f575060408051808201909152601781527f5265636569766572206973206d697373696e67204b59430000000000000000006020820152610d61565b6040805162461bcd60e51b815260206004820152601860248201527f696e76616c69642d7265737472696374696f6e2d636f64650000000000000000604482015290519081900360640190fd5b6000828152600660205260408120610d479083611f29565b7f000000000000000000000000000000000000000000000000000000000000000081565b6000828152600660205260408120610d479083611f35565b60048054604080516020601f6002600019610100600188161502019095169490940493840181900481028201810190925282815260609390929091830182828015610b7a5780601f10610b4f57610100808354040283529160200191610b7a565b60008061123c6116fb565b604051806040016040528060138152602001723932b9ba3934b1ba32b216ba3796b0b236b4b760691b81525061127283836111b8565b81906112bf5760405162461bcd60e51b8152602060048201818152835160248401528351909283926044909101919085019080838360008315610c79578181015183820152602001610c61565b506112c8611f4a565b935050505090565b60008060006112e0846009611e2c565b91509150816112f6576112f1610ba2565b6112f8565b805b949350505050565b6000610b9c6000805160206128ea833981519152836111b8565b600081565b6000610b9861132c6116fb565b84610d3e856040518060600160405280602581526020016129bd60259139600160006113566116fb565b6001600160a01b03908116825260208083019390935260409182016000908120918d16815292529020549190611b51565b6000610b986113946116fb565b84846119f6565b6000818152600660205260408120610b9c90611f9e565b60006113be8585610b84565b50846001600160a01b0316638f4ffcb16113d66116fb565b863087876040518663ffffffff1660e01b815260040180866001600160a01b03168152602001858152602001846001600160a01b03168152602001806020018281038252848482818152602001925080828437600081840152601f19601f8201169050808301925050509650505050505050602060405180830381600087803b15801561146257600080fd5b505af1158015611476573d6000803e3d6000fd5b505050506040513d602081101561148c57600080fd5b5051610fee576040805162461bcd60e51b815260206004820152601c60248201527f617070726f76616c2d726566757365642d62792d726563656976657200000000604482015290519081900360640190fd5b60006114e96116fb565b6040518060400160405280600a81526020016937b7363c96b0b236b4b760b11b81525061151683836111b8565b81906115635760405162461bcd60e51b8152602060048201818152835160248401528351909283926044909101919085019080838360008315610c79578181015183820152602001610c61565b50600061158461157d600c54611577610ba2565b90611ca7565b47906116a4565b905061159f6115916116fb565b600c54610aa59084906116ff565b6115b86115aa6116fb565b600c54610ac390849061174b565b50505050565b60006001600160a01b038416158015906115de57506115dc84611300565b155b156115eb57506001610d47565b6001600160a01b03831615801590611609575061160783611300565b155b1561161657506002610d47565b5060009392505050565b60008281526006602052604090206002015461163e90610dcc6116fb565b610e7a5760405162461bcd60e51b81526004018080602001828103825260308152602001806128ba6030913960400191505060405180910390fd5b6001600160a01b03918216600090815260016020908152604080832093909416825291909152205490565b6000610d4783836040518060400160405280601e81526020017f536166654d6174683a207375627472616374696f6e206f766572666c6f770000815250611b51565b6000610d47836001600160a01b038416611fa9565b3390565b6000610d4783836040518060400160405280601a81526020017f536166654d6174683a206469766973696f6e206279207a65726f000000000000815250611ff3565b610e168282612058565b6000610d4783836040518060400160405280601881526020017f536166654d6174683a206d6f64756c6f206279207a65726f00000000000000008152506120db565b804710156117e2576040805162461bcd60e51b815260206004820152601d60248201527f416464726573733a20696e73756666696369656e742062616c616e6365000000604482015290519081900360640190fd5b6040516000906001600160a01b0384169083908381818185875af1925050503d806000811461182d576040519150601f19603f3d011682016040523d82523d6000602084013e611832565b606091505b5050905080610bee5760405162461bcd60e51b815260040180806020018281038252603a815260200180612880603a913960400191505060405180910390fd5b6001600160a01b0383166118b75760405162461bcd60e51b81526004018080602001828103825260248152602001806129996024913960400191505060405180910390fd5b6001600160a01b0382166118fc5760405162461bcd60e51b81526004018080602001828103825260228152602001806128386022913960400191505060405180910390fd5b6001600160a01b03808416600081815260016020908152604080832094871680845294825291829020859055815185815291517f8c5be1e5ebec7d5bd14f71427d1e84f3dd0314c0f7b2291e5b200ac8c7c3b9259281900390910190a3505050565b60006119686116fb565b604051806040016040528060138152602001723932b9ba3934b1ba32b216ba3796b0b236b4b760691b81525061199e83836111b8565b81906119eb5760405162461bcd60e51b8152602060048201818152835160248401528351909283926044909101919085019080838360008315610c79578181015183820152602001610c61565b50610cbf858561213d565b6001600160a01b038316611a3b5760405162461bcd60e51b81526004018080602001828103825260258152602001806129746025913960400191505060405180910390fd5b6001600160a01b038216611a805760405162461bcd60e51b81526004018080602001828103825260238152602001806127c46023913960400191505060405180910390fd5b611a8b8383836122ee565b611ac88160405180606001604052806026815260200161285a602691396001600160a01b0386166000908152602081905260409020549190611b51565b6001600160a01b038085166000908152602081905260408082209390935590841681522054611af79082611dd2565b6001600160a01b038084166000818152602081815260409182902094909455805185815290519193928716927fddf252ad1be2c89b69c2b068fc378daa952ba7f163c4a11628f55a4df523b3ef92918290030190a3505050565b60008184841115611ba35760405162461bcd60e51b8152602060048201818152835160248401528351909283926044909101919085019080838360008315610c79578181015183820152602001610c61565b505050900390565b6001600160a01b038216611bf05760405162461bcd60e51b81526004018080602001828103825260218152602001806129536021913960400191505060405180910390fd5b611bfc826000836122ee565b611c3981604051806060016040528060228152602001612816602291396001600160a01b0385166000908152602081905260409020549190611b51565b6001600160a01b038316600090815260208190526040902055600254611c5f90826116a4565b6002556040805182815290516000916001600160a01b038516917fddf252ad1be2c89b69c2b068fc378daa952ba7f163c4a11628f55a4df523b3ef9181900360200190a35050565b600082611cb657506000610b9c565b82820282848281611cc357fe5b0414610d475760405162461bcd60e51b815260040180806020018281038252602181526020018061290a6021913960400191505060405180910390fd5b6000828152600660205260409020611d1890826116e6565b15610e1657611d256116fb565b6001600160a01b0316816001600160a01b0316837f2f8788117e7eff1d82e926ec794901d17c78024a50270940304540a733656f0d60405160405180910390a45050565b6000828152600660205260409020611d819082612304565b15610e1657611d8e6116fb565b6001600160a01b0316816001600160a01b0316837ff6391f5c32d9c69d2a47ea670b442974b53935d1edc7fd64eb21e047a839171b60405160405180910390a45050565b600082820183811015610d47576040805162461bcd60e51b815260206004820152601b60248201527f536166654d6174683a206164646974696f6e206f766572666c6f770000000000604482015290519081900360640190fd5b60008060008411611e7d576040805162461bcd60e51b815260206004820152601660248201527504552433230536e617073686f743a20696420697320360541b604482015290519081900360640190fd5b611e87600b612319565b841115611edb576040805162461bcd60e51b815260206004820152601d60248201527f4552433230536e617073686f743a206e6f6e6578697374656e74206964000000604482015290519081900360640190fd5b6000611ee7848661231d565b8454909150811415611f00576000809250925050611f22565b6001846001018281548110611f1157fe5b906000526020600020015492509250505b9250929050565b6000610d4783836123be565b6000610d47836001600160a01b038416612422565b6000611f56600b61243a565b6000611f62600b612319565b6040805182815290519192507f8030e83b04d87bef53480e26263266d6ca66863aa8506aca6f2559d18aa1cb67919081900360200190a1905090565b6000610b9c82612319565b6000611fb58383612422565b611feb57508154600181810184556000848152602080822090930184905584548482528286019093526040902091909155610b9c565b506000610b9c565b600081836120425760405162461bcd60e51b8152602060048201818152835160248401528351909283926044909101919085019080838360008315610c79578181015183820152602001610c61565b50600083858161204e57fe5b0495945050505050565b6120628282612443565b60075460ff1615801561209c57507f0000000000000000000000000000000000000000000000000000000000000000612099610ba2565b10155b15610e16576007805460ff191660011790556040517f629c1b672a634075c61f1cbfbec5f3e47b94c3f90f065486f615ecfa18713d3490600090a15050565b6000818361212a5760405162461bcd60e51b8152602060048201818152835160248401528351909283926044909101919085019080838360008315610c79578181015183820152602001610c61565b5082848161213457fe5b06949350505050565b6001600160a01b0382166121ec576040516000906001600160a01b0383169047908381818185875af1925050503d8060008114612196576040519150601f19603f3d011682016040523d82523d6000602084013e61219b565b606091505b50509050806121e6576040805162461bcd60e51b81526020600482015260126024820152710cae4e4dee45ac6d8c2d2dad2dcce5acae8d60731b604482015290519081900360640190fd5b50610e16565b816001600160a01b031663a9059cbb82846001600160a01b03166370a08231306040518263ffffffff1660e01b815260040180826001600160a01b0316815260200191505060206040518083038186803b15801561224957600080fd5b505afa15801561225d573d6000803e3d6000fd5b505050506040513d602081101561227357600080fd5b5051604080516001600160e01b031960e086901b1681526001600160a01b03909316600484015260248301919091525160448083019260209291908290030181600087803b1580156122c457600080fd5b505af11580156122d8573d6000803e3d6000fd5b505050506040513d60208110156115b857600080fd5b6122f9838383612533565b610bee83838361258b565b6000610d47836001600160a01b0384166125fe565b5490565b815460009061232e57506000610b9c565b82546000905b8082101561237d57600061234883836126c4565b90508486828154811061235757fe5b9060005260206000200154111561237057809150612377565b8060010192505b50612334565b6000821180156123a557508385600184038154811061239857fe5b9060005260206000200154145b156123b65750600019019050610b9c565b509050610b9c565b815460009082106124005760405162461bcd60e51b81526004018080602001828103825260228152602001806127a26022913960400191505060405180910390fd5b82600001828154811061240f57fe5b9060005260206000200154905092915050565b60009081526001919091016020526040902054151590565b80546001019055565b6001600160a01b03821661249e576040805162461bcd60e51b815260206004820152601f60248201527f45524332303a206d696e7420746f20746865207a65726f206164647265737300604482015290519081900360640190fd5b6124aa600083836122ee565b6002546124b79082611dd2565b6002556001600160a01b0382166000908152602081905260409020546124dd9082611dd2565b6001600160a01b0383166000818152602081815260408083209490945583518581529351929391927fddf252ad1be2c89b69c2b068fc378daa952ba7f163c4a11628f55a4df523b3ef9281900390910190a35050565b61253e83838361258b565b6001600160a01b03831661256257612555826126e9565b61255d612713565b610bee565b6001600160a01b03821661257957612555836126e9565b612582836126e9565b610bee826126e9565b60006125988484846115be565b905060ff8116156125f3576125ac816110a9565b60405162461bcd60e51b8152602060048201818152835160248401528351909283926044909101919085019080838360008315610c79578181015183820152602001610c61565b6115b8848484610bee565b600081815260018301602052604081205480156126ba578354600019808301919081019060009087908390811061263157fe5b906000526020600020015490508087600001848154811061264e57fe5b60009182526020808320909101929092558281526001898101909252604090209084019055865487908061267e57fe5b60019003818190600052602060002001600090559055866001016000878152602001908152602001600020600090556001945050505050610b9c565b6000915050610b9c565b600060028083066002850601816126d757fe5b04600283046002850401019392505050565b6001600160a01b0381166000908152600860205260409020610dab9061270e8361108e565b612720565b610ac8600961270e610ba2565b600061272c600b612319565b9050806127388461276c565b1015610bee578254600180820185556000858152602080822090930193909355938401805494850181558252902090910155565b805460009061277d57506000610d61565b81548290600019810190811061278f57fe5b90600052602060002001549050610d6156fe456e756d657261626c655365743a20696e646578206f7574206f6620626f756e647345524332303a207472616e7366657220746f20746865207a65726f2061646472657373416363657373436f6e74726f6c3a2073656e646572206d75737420626520616e2061646d696e20746f206772616e7445524332303a206275726e20616d6f756e7420657863656564732062616c616e636545524332303a20617070726f766520746f20746865207a65726f206164647265737345524332303a207472616e7366657220616d6f756e7420657863656564732062616c616e6365416464726573733a20756e61626c6520746f2073656e642076616c75652c20726563697069656e74206d61792068617665207265766572746564416363657373436f6e74726f6c3a2073656e646572206d75737420626520616e2061646d696e20746f207265766f6b65ce55f595624c86c7e93aa4cf15cb4a958406550ae728a9b7ffda71a7d62eca73536166654d6174683a206d756c7469706c69636174696f6e206f766572666c6f7745524332303a207472616e7366657220616d6f756e74206578636565647320616c6c6f77616e636545524332303a206275726e2066726f6d20746865207a65726f206164647265737345524332303a207472616e736665722066726f6d20746865207a65726f206164647265737345524332303a20617070726f76652066726f6d20746865207a65726f206164647265737345524332303a2064656372656173656420616c6c6f77616e63652062656c6f77207a65726f416363657373436f6e74726f6c3a2063616e206f6e6c792072656e6f756e636520726f6c657320666f722073656c66a2646970667358221220e8a63f6566fe570102893e3eaa03827e95a035577145322b1ea7fe89784ac9b864736f6c634300060c0033811427a0fa4932aef534bba16bc34e9b7b2d7d2a79c475fca1765f6cc1faebea",
  "immutableReferences": {
    "201": [
      {
        "length": 32,
        "start": 4502
      },
      {
        "length": 32,
        "start": 8306
      }
    ]
  },
  "source": "// SPDX-License-Identifier: Apache-2.0\n\n/******************************************************************************\n * Copyright 2020 IEXEC BLOCKCHAIN TECH                                       *\n *                                                                            *\n * Licensed under the Apache License, Version 2.0 (the \"License\");            *\n * you may not use this file except in compliance with the License.           *\n * You may obtain a copy of the License at                                    *\n *                                                                            *\n *     http://www.apache.org/licenses/LICENSE-2.0                             *\n *                                                                            *\n * Unless required by applicable law or agreed to in writing, software        *\n * distributed under the License is distributed on an \"AS IS\" BASIS,          *\n * WITHOUT WARRANTIES OR CONDITIONS OF ANY KIND, either express or implied.   *\n * See the License for the specific language governing permissions and        *\n * limitations under the License.                                             *\n ******************************************************************************/\n\npragma solidity ^0.6.0;\n\nimport \"../interfaces/IERC677.sol\";\nimport \"../ERLC.sol\";\n\n\ncontract ERLCNativeSwap is ERLC\n{\n    uint256 public ConversionRate;\n\n    constructor(\n        string    memory name,\n        string    memory symbol,\n        uint8            decimals,\n        uint256          softcap,\n        address[] memory admins,\n        address[] memory kycadmins)\n    public\n    ERLC(name, symbol, softcap, admins, kycadmins)\n    {\n        ConversionRate = 10 ** SafeMath.sub(18, decimals);\n        _setupDecimals(decimals);\n    }\n\n    /*************************************************************************\n     *                       Escrow - public interface                       *\n     *************************************************************************/\n    receive()\n    external payable\n    {\n        deposit();\n    }\n\n    function deposit()\n    public payable\n    {\n        _mint(_msgSender(), msg.value.div(ConversionRate));\n        Address.sendValue(_msgSender(), msg.value.mod(ConversionRate));\n    }\n\n    function withdraw(uint256 amount)\n    public\n    {\n        _burn(_msgSender(), amount);\n        Address.sendValue(_msgSender(), amount.mul(ConversionRate));\n    }\n\n    function recover()\n    public\n    onlyRole(DEFAULT_ADMIN_ROLE, _msgSender(), \"only-admin\")\n    {\n        uint256 delta = address(this).balance.sub(totalSupply().mul(ConversionRate));\n\n        _mint(_msgSender(), delta.div(ConversionRate));\n        Address.sendValue(_msgSender(), delta.mod(ConversionRate));\n    }\n\n    function claim(address token, address to)\n    public virtual override\n    onlyRole(DEFAULT_ADMIN_ROLE, _msgSender(), \"only-admin\")\n    {\n        super.claim(token, to);\n    }\n}\n",
  "sourcePath": "/home/amxx/Work/iExec/code/eRLC/contracts/wip/ERLCNativeSwap.sol",
  "compiler": {
    "name": "solc",
    "version": "0.6.12+commit.27d51765.Emscripten.clang"
  },
  "schemaVersion": "3.3.2",
  "updatedAt": "2021-01-11T10:31:27.973Z",
  "devdoc": {
    "kind": "dev",
    "methods": {
      "allowance(address,address)": {
        "details": "See {IERC20-allowance}."
      },
      "approve(address,uint256)": {
        "details": "See {IERC20-approve}. Requirements: - `spender` cannot be the zero address."
      },
      "balanceOf(address)": {
        "details": "See {IERC20-balanceOf}."
      },
      "balanceOfAt(address,uint256)": {
        "details": "Retrieves the balance of `account` at the time `snapshotId` was created."
      },
      "decimals()": {
        "details": "Returns the number of decimals used to get its user representation. For example, if `decimals` equals `2`, a balance of `505` tokens should be displayed to a user as `5,05` (`505 / 10 ** 2`). Tokens usually opt for a value of 18, imitating the relationship between Ether and Wei. This is the value {ERC20} uses, unless {_setupDecimals} is called. NOTE: This information is only used for _display_ purposes: it in no way affects any of the arithmetic of the contract, including {IERC20-balanceOf} and {IERC20-transfer}."
      },
      "decreaseAllowance(address,uint256)": {
        "details": "Atomically decreases the allowance granted to `spender` by the caller. This is an alternative to {approve} that can be used as a mitigation for problems described in {IERC20-approve}. Emits an {Approval} event indicating the updated allowance. Requirements: - `spender` cannot be the zero address. - `spender` must have allowance for the caller of at least `subtractedValue`."
      },
      "getRoleAdmin(bytes32)": {
        "details": "Returns the admin role that controls `role`. See {grantRole} and {revokeRole}. To change a role's admin, use {_setRoleAdmin}."
      },
      "getRoleMember(bytes32,uint256)": {
        "details": "Returns one of the accounts that have `role`. `index` must be a value between 0 and {getRoleMemberCount}, non-inclusive. Role bearers are not sorted in any particular way, and their ordering may change at any point. WARNING: When using {getRoleMember} and {getRoleMemberCount}, make sure you perform all queries on the same block. See the following https://forum.openzeppelin.com/t/iterating-over-elements-on-enumerableset-in-openzeppelin-contracts/2296[forum post] for more information."
      },
      "getRoleMemberCount(bytes32)": {
        "details": "Returns the number of accounts that have `role`. Can be used together with {getRoleMember} to enumerate all bearers of a role."
      },
      "grantRole(bytes32,address)": {
        "details": "Grants `role` to `account`. If `account` had not been already granted `role`, emits a {RoleGranted} event. Requirements: - the caller must have ``role``'s admin role."
      },
      "hasRole(bytes32,address)": {
        "details": "Returns `true` if `account` has been granted `role`."
      },
      "increaseAllowance(address,uint256)": {
        "details": "Atomically increases the allowance granted to `spender` by the caller. This is an alternative to {approve} that can be used as a mitigation for problems described in {IERC20-approve}. Emits an {Approval} event indicating the updated allowance. Requirements: - `spender` cannot be the zero address."
      },
      "name()": {
        "details": "Returns the name of the token."
      },
      "renounceRole(bytes32,address)": {
        "details": "Revokes `role` from the calling account. Roles are often managed via {grantRole} and {revokeRole}: this function's purpose is to provide a mechanism for accounts to lose their privileges if they are compromised (such as when a trusted device is misplaced). If the calling account had been granted `role`, emits a {RoleRevoked} event. Requirements: - the caller must be `account`."
      },
      "revokeRole(bytes32,address)": {
        "details": "Revokes `role` from `account`. If `account` had been granted `role`, emits a {RoleRevoked} event. Requirements: - the caller must have ``role``'s admin role."
      },
      "symbol()": {
        "details": "Returns the symbol of the token, usually a shorter version of the name."
      },
      "totalSupply()": {
        "details": "See {IERC20-totalSupply}."
      },
      "totalSupplyAt(uint256)": {
        "details": "Retrieves the total supply at the time `snapshotId` was created."
      },
      "transfer(address,uint256)": {
        "details": "See {IERC20-transfer}. Requirements: - `recipient` cannot be the zero address. - the caller must have a balance of at least `amount`."
      },
      "transferFrom(address,address,uint256)": {
        "details": "See {IERC20-transferFrom}. Emits an {Approval} event indicating the updated allowance. This is not required by the EIP. See the note at the beginning of {ERC20}. Requirements: - `sender` and `recipient` cannot be the zero address. - `sender` must have a balance of at least `amount`. - the caller must have allowance for ``sender``'s tokens of at least `amount`."
      }
    },
    "version": 1
  },
  "userdoc": {
    "kind": "user",
    "methods": {},
    "version": 1
  }
}