{
  "contractName": "ERLCBridge",
  "abi": [
    {
      "inputs": [
        {
          "internalType": "string",
          "name": "name",
          "type": "string"
        },
        {
          "internalType": "string",
          "name": "symbol",
          "type": "string"
        },
        {
          "internalType": "uint8",
          "name": "decimals",
          "type": "uint8"
        },
        {
          "internalType": "uint256",
          "name": "softcap",
          "type": "uint256"
        },
        {
          "internalType": "address[]",
          "name": "admins",
          "type": "address[]"
        },
        {
          "internalType": "address[]",
          "name": "kycadmins",
          "type": "address[]"
        }
      ],
      "stateMutability": "nonpayable",
      "type": "constructor"
    },
    {
      "anonymous": false,
      "inputs": [
        {
          "indexed": true,
          "internalType": "address",
          "name": "owner",
          "type": "address"
        },
        {
          "indexed": true,
          "internalType": "address",
          "name": "spender",
          "type": "address"
        },
        {
          "indexed": false,
          "internalType": "uint256",
          "name": "value",
          "type": "uint256"
        }
      ],
      "name": "Approval",
      "type": "event"
    },
    {
      "anonymous": false,
      "inputs": [
        {
          "indexed": true,
          "internalType": "bytes32",
          "name": "role",
          "type": "bytes32"
        },
        {
          "indexed": true,
          "internalType": "bytes32",
          "name": "previousAdminRole",
          "type": "bytes32"
        },
        {
          "indexed": true,
          "internalType": "bytes32",
          "name": "newAdminRole",
          "type": "bytes32"
        }
      ],
      "name": "RoleAdminChanged",
      "type": "event"
    },
    {
      "anonymous": false,
      "inputs": [
        {
          "indexed": true,
          "internalType": "bytes32",
          "name": "role",
          "type": "bytes32"
        },
        {
          "indexed": true,
          "internalType": "address",
          "name": "account",
          "type": "address"
        },
        {
          "indexed": true,
          "internalType": "address",
          "name": "sender",
          "type": "address"
        }
      ],
      "name": "RoleGranted",
      "type": "event"
    },
    {
      "anonymous": false,
      "inputs": [
        {
          "indexed": true,
          "internalType": "bytes32",
          "name": "role",
          "type": "bytes32"
        },
        {
          "indexed": true,
          "internalType": "address",
          "name": "account",
          "type": "address"
        },
        {
          "indexed": true,
          "internalType": "address",
          "name": "sender",
          "type": "address"
        }
      ],
      "name": "RoleRevoked",
      "type": "event"
    },
    {
      "anonymous": false,
      "inputs": [
        {
          "indexed": false,
          "internalType": "uint256",
          "name": "id",
          "type": "uint256"
        }
      ],
      "name": "Snapshot",
      "type": "event"
    },
    {
      "anonymous": false,
      "inputs": [],
      "name": "SoftCapReached",
      "type": "event"
    },
    {
      "anonymous": false,
      "inputs": [
        {
          "indexed": true,
          "internalType": "address",
          "name": "from",
          "type": "address"
        },
        {
          "indexed": true,
          "internalType": "address",
          "name": "to",
          "type": "address"
        },
        {
          "indexed": false,
          "internalType": "uint256",
          "name": "value",
          "type": "uint256"
        }
      ],
      "name": "Transfer",
      "type": "event"
    },
    {
      "inputs": [],
      "name": "DEFAULT_ADMIN_ROLE",
      "outputs": [
        {
          "internalType": "bytes32",
          "name": "",
          "type": "bytes32"
        }
      ],
      "stateMutability": "view",
      "type": "function"
    },
    {
      "inputs": [],
      "name": "KYC_ADMIN_ROLE",
      "outputs": [
        {
          "internalType": "bytes32",
          "name": "",
          "type": "bytes32"
        }
      ],
      "stateMutability": "view",
      "type": "function"
    },
    {
      "inputs": [],
      "name": "KYC_MEMBER_ROLE",
      "outputs": [
        {
          "internalType": "bytes32",
          "name": "",
          "type": "bytes32"
        }
      ],
      "stateMutability": "view",
      "type": "function"
    },
    {
      "inputs": [],
      "name": "MINTER_ROLE",
      "outputs": [
        {
          "internalType": "bytes32",
          "name": "",
          "type": "bytes32"
        }
      ],
      "stateMutability": "view",
      "type": "function"
    },
    {
      "inputs": [
        {
          "internalType": "address",
          "name": "owner",
          "type": "address"
        },
        {
          "internalType": "address",
          "name": "spender",
          "type": "address"
        }
      ],
      "name": "allowance",
      "outputs": [
        {
          "internalType": "uint256",
          "name": "",
          "type": "uint256"
        }
      ],
      "stateMutability": "view",
      "type": "function"
    },
    {
      "inputs": [
        {
          "internalType": "address",
          "name": "spender",
          "type": "address"
        },
        {
          "internalType": "uint256",
          "name": "amount",
          "type": "uint256"
        }
      ],
      "name": "approve",
      "outputs": [
        {
          "internalType": "bool",
          "name": "",
          "type": "bool"
        }
      ],
      "stateMutability": "nonpayable",
      "type": "function"
    },
    {
      "inputs": [
        {
          "internalType": "address",
          "name": "spender",
          "type": "address"
        },
        {
          "internalType": "uint256",
          "name": "amount",
          "type": "uint256"
        },
        {
          "internalType": "bytes",
          "name": "extraData",
          "type": "bytes"
        }
      ],
      "name": "approveAndCall",
      "outputs": [
        {
          "internalType": "bool",
          "name": "",
          "type": "bool"
        }
      ],
      "stateMutability": "nonpayable",
      "type": "function"
    },
    {
      "inputs": [
        {
          "internalType": "address",
          "name": "account",
          "type": "address"
        }
      ],
      "name": "balanceOf",
      "outputs": [
        {
          "internalType": "uint256",
          "name": "",
          "type": "uint256"
        }
      ],
      "stateMutability": "view",
      "type": "function"
    },
    {
      "inputs": [
        {
          "internalType": "address",
          "name": "account",
          "type": "address"
        },
        {
          "internalType": "uint256",
          "name": "snapshotId",
          "type": "uint256"
        }
      ],
      "name": "balanceOfAt",
      "outputs": [
        {
          "internalType": "uint256",
          "name": "",
          "type": "uint256"
        }
      ],
      "stateMutability": "view",
      "type": "function"
    },
    {
      "inputs": [],
      "name": "bridgeContract",
      "outputs": [
        {
          "internalType": "address",
          "name": "",
          "type": "address"
        }
      ],
      "stateMutability": "view",
      "type": "function"
    },
    {
      "inputs": [
        {
          "internalType": "address",
          "name": "token",
          "type": "address"
        },
        {
          "internalType": "address",
          "name": "to",
          "type": "address"
        }
      ],
      "name": "claim",
      "outputs": [],
      "stateMutability": "nonpayable",
      "type": "function"
    },
    {
      "inputs": [],
      "name": "decimals",
      "outputs": [
        {
          "internalType": "uint8",
          "name": "",
          "type": "uint8"
        }
      ],
      "stateMutability": "view",
      "type": "function"
    },
    {
      "inputs": [
        {
          "internalType": "address",
          "name": "spender",
          "type": "address"
        },
        {
          "internalType": "uint256",
          "name": "subtractedValue",
          "type": "uint256"
        }
      ],
      "name": "decreaseAllowance",
      "outputs": [
        {
          "internalType": "bool",
          "name": "",
          "type": "bool"
        }
      ],
      "stateMutability": "nonpayable",
      "type": "function"
    },
    {
      "inputs": [
        {
          "internalType": "address",
          "name": "from",
          "type": "address"
        },
        {
          "internalType": "address",
          "name": "to",
          "type": "address"
        },
        {
          "internalType": "uint256",
          "name": "",
          "type": "uint256"
        }
      ],
      "name": "detectTransferRestriction",
      "outputs": [
        {
          "internalType": "uint8",
          "name": "",
          "type": "uint8"
        }
      ],
      "stateMutability": "view",
      "type": "function"
    },
    {
      "inputs": [
        {
          "internalType": "bytes32",
          "name": "role",
          "type": "bytes32"
        }
      ],
      "name": "getRoleAdmin",
      "outputs": [
        {
          "internalType": "bytes32",
          "name": "",
          "type": "bytes32"
        }
      ],
      "stateMutability": "view",
      "type": "function"
    },
    {
      "inputs": [
        {
          "internalType": "bytes32",
          "name": "role",
          "type": "bytes32"
        },
        {
          "internalType": "uint256",
          "name": "index",
          "type": "uint256"
        }
      ],
      "name": "getRoleMember",
      "outputs": [
        {
          "internalType": "address",
          "name": "",
          "type": "address"
        }
      ],
      "stateMutability": "view",
      "type": "function"
    },
    {
      "inputs": [
        {
          "internalType": "bytes32",
          "name": "role",
          "type": "bytes32"
        }
      ],
      "name": "getRoleMemberCount",
      "outputs": [
        {
          "internalType": "uint256",
          "name": "",
          "type": "uint256"
        }
      ],
      "stateMutability": "view",
      "type": "function"
    },
    {
      "inputs": [
        {
          "internalType": "address[]",
          "name": "accounts",
          "type": "address[]"
        }
      ],
      "name": "grantKYC",
      "outputs": [],
      "stateMutability": "nonpayable",
      "type": "function"
    },
    {
      "inputs": [
        {
          "internalType": "bytes32",
          "name": "role",
          "type": "bytes32"
        },
        {
          "internalType": "address",
          "name": "account",
          "type": "address"
        }
      ],
      "name": "grantRole",
      "outputs": [],
      "stateMutability": "nonpayable",
      "type": "function"
    },
    {
      "inputs": [
        {
          "internalType": "bytes32",
          "name": "role",
          "type": "bytes32"
        },
        {
          "internalType": "address",
          "name": "account",
          "type": "address"
        }
      ],
      "name": "hasRole",
      "outputs": [
        {
          "internalType": "bool",
          "name": "",
          "type": "bool"
        }
      ],
      "stateMutability": "view",
      "type": "function"
    },
    {
      "inputs": [
        {
          "internalType": "address",
          "name": "spender",
          "type": "address"
        },
        {
          "internalType": "uint256",
          "name": "addedValue",
          "type": "uint256"
        }
      ],
      "name": "increaseAllowance",
      "outputs": [
        {
          "internalType": "bool",
          "name": "",
          "type": "bool"
        }
      ],
      "stateMutability": "nonpayable",
      "type": "function"
    },
    {
      "inputs": [
        {
          "internalType": "address",
          "name": "account",
          "type": "address"
        }
      ],
      "name": "isKYC",
      "outputs": [
        {
          "internalType": "bool",
          "name": "",
          "type": "bool"
        }
      ],
      "stateMutability": "view",
      "type": "function"
    },
    {
      "inputs": [
        {
          "internalType": "uint8",
          "name": "restrictionCode",
          "type": "uint8"
        }
      ],
      "name": "messageForTransferRestriction",
      "outputs": [
        {
          "internalType": "string",
          "name": "",
          "type": "string"
        }
      ],
      "stateMutability": "view",
      "type": "function"
    },
    {
      "inputs": [],
      "name": "name",
      "outputs": [
        {
          "internalType": "string",
          "name": "",
          "type": "string"
        }
      ],
      "stateMutability": "view",
      "type": "function"
    },
    {
      "inputs": [
        {
          "internalType": "bytes32",
          "name": "role",
          "type": "bytes32"
        },
        {
          "internalType": "address",
          "name": "account",
          "type": "address"
        }
      ],
      "name": "renounceRole",
      "outputs": [],
      "stateMutability": "nonpayable",
      "type": "function"
    },
    {
      "inputs": [
        {
          "internalType": "address[]",
          "name": "accounts",
          "type": "address[]"
        }
      ],
      "name": "revokeKYC",
      "outputs": [],
      "stateMutability": "nonpayable",
      "type": "function"
    },
    {
      "inputs": [
        {
          "internalType": "bytes32",
          "name": "role",
          "type": "bytes32"
        },
        {
          "internalType": "address",
          "name": "account",
          "type": "address"
        }
      ],
      "name": "revokeRole",
      "outputs": [],
      "stateMutability": "nonpayable",
      "type": "function"
    },
    {
      "inputs": [],
      "name": "snapshot",
      "outputs": [
        {
          "internalType": "uint256",
          "name": "",
          "type": "uint256"
        }
      ],
      "stateMutability": "nonpayable",
      "type": "function"
    },
    {
      "inputs": [],
      "name": "softCap",
      "outputs": [
        {
          "internalType": "uint256",
          "name": "",
          "type": "uint256"
        }
      ],
      "stateMutability": "view",
      "type": "function"
    },
    {
      "inputs": [],
      "name": "softCapReached",
      "outputs": [
        {
          "internalType": "bool",
          "name": "",
          "type": "bool"
        }
      ],
      "stateMutability": "view",
      "type": "function"
    },
    {
      "inputs": [],
      "name": "symbol",
      "outputs": [
        {
          "internalType": "string",
          "name": "",
          "type": "string"
        }
      ],
      "stateMutability": "view",
      "type": "function"
    },
    {
      "inputs": [],
      "name": "totalSupply",
      "outputs": [
        {
          "internalType": "uint256",
          "name": "",
          "type": "uint256"
        }
      ],
      "stateMutability": "view",
      "type": "function"
    },
    {
      "inputs": [
        {
          "internalType": "uint256",
          "name": "snapshotId",
          "type": "uint256"
        }
      ],
      "name": "totalSupplyAt",
      "outputs": [
        {
          "internalType": "uint256",
          "name": "",
          "type": "uint256"
        }
      ],
      "stateMutability": "view",
      "type": "function"
    },
    {
      "inputs": [
        {
          "internalType": "address",
          "name": "receiver",
          "type": "address"
        },
        {
          "internalType": "uint256",
          "name": "amount",
          "type": "uint256"
        },
        {
          "internalType": "bytes",
          "name": "data",
          "type": "bytes"
        }
      ],
      "name": "transferAndCall",
      "outputs": [
        {
          "internalType": "bool",
          "name": "",
          "type": "bool"
        }
      ],
      "stateMutability": "nonpayable",
      "type": "function"
    },
    {
      "inputs": [
        {
          "internalType": "address",
          "name": "bridgecontract",
          "type": "address"
        }
      ],
      "name": "setBridgeContract",
      "outputs": [],
      "stateMutability": "nonpayable",
      "type": "function"
    },
    {
      "inputs": [
        {
          "internalType": "address",
          "name": "recipient",
          "type": "address"
        },
        {
          "internalType": "uint256",
          "name": "amount",
          "type": "uint256"
        }
      ],
      "name": "transfer",
      "outputs": [
        {
          "internalType": "bool",
          "name": "",
          "type": "bool"
        }
      ],
      "stateMutability": "nonpayable",
      "type": "function"
    },
    {
      "inputs": [
        {
          "internalType": "address",
          "name": "sender",
          "type": "address"
        },
        {
          "internalType": "address",
          "name": "recipient",
          "type": "address"
        },
        {
          "internalType": "uint256",
          "name": "amount",
          "type": "uint256"
        }
      ],
      "name": "transferFrom",
      "outputs": [
        {
          "internalType": "bool",
          "name": "",
          "type": "bool"
        }
      ],
      "stateMutability": "nonpayable",
      "type": "function"
    },
    {
      "inputs": [
        {
          "internalType": "address",
          "name": "account",
          "type": "address"
        }
      ],
      "name": "isMinter",
      "outputs": [
        {
          "internalType": "bool",
          "name": "",
          "type": "bool"
        }
      ],
      "stateMutability": "view",
      "type": "function"
    },
    {
      "inputs": [
        {
          "internalType": "address",
          "name": "account",
          "type": "address"
        }
      ],
      "name": "addMinter",
      "outputs": [],
      "stateMutability": "nonpayable",
      "type": "function"
    },
    {
      "inputs": [],
      "name": "renounceMinter",
      "outputs": [],
      "stateMutability": "nonpayable",
      "type": "function"
    },
    {
      "inputs": [
        {
          "internalType": "address",
          "name": "account",
          "type": "address"
        },
        {
          "internalType": "uint256",
          "name": "amount",
          "type": "uint256"
        }
      ],
      "name": "mint",
      "outputs": [
        {
          "internalType": "bool",
          "name": "",
          "type": "bool"
        }
      ],
      "stateMutability": "nonpayable",
      "type": "function"
    },
    {
      "inputs": [
        {
          "internalType": "uint256",
          "name": "amount",
          "type": "uint256"
        }
      ],
      "name": "burn",
      "outputs": [],
      "stateMutability": "nonpayable",
      "type": "function"
    },
    {
      "inputs": [
        {
          "internalType": "address",
          "name": "account",
          "type": "address"
        },
        {
          "internalType": "uint256",
          "name": "amount",
          "type": "uint256"
        }
      ],
      "name": "burnFrom",
      "outputs": [],
      "stateMutability": "nonpayable",
      "type": "function"
    }
  ],
  "bytecode": "0x60a06040523480156200001157600080fd5b506040516200306338038062003063833981810160405260c08110156200003757600080fd5b81019080805160405193929190846401000000008211156200005857600080fd5b9083019060208201858111156200006e57600080fd5b82516401000000008111828201881017156200008957600080fd5b82525081516020918201929091019080838360005b83811015620000b85781810151838201526020016200009e565b50505050905090810190601f168015620000e65780820380516001836020036101000a031916815260200191505b50604052602001805160405193929190846401000000008211156200010a57600080fd5b9083019060208201858111156200012057600080fd5b82516401000000008111828201881017156200013b57600080fd5b82525081516020918201929091019080838360005b838110156200016a57818101518382015260200162000150565b50505050905090810190601f168015620001985780820380516001836020036101000a031916815260200191505b50604081815260208301519083015160609093018051919593949293929184640100000000821115620001ca57600080fd5b908301906020820185811115620001e057600080fd5b8251866020820283011164010000000082111715620001fe57600080fd5b82525081516020918201928201910280838360005b838110156200022d57818101518382015260200162000213565b50505050905001604052602001805160405193929190846401000000008211156200025757600080fd5b9083019060208201858111156200026d57600080fd5b82518660208202830111640100000000821117156200028b57600080fd5b82525081516020918201928201910280838360005b83811015620002ba578181015183820152602001620002a0565b50505050905001604052505050858584848482828287878160039080519060200190620002e99291906200056d565b508051620002ff9060049060208401906200056d565b50506005805460ff19166012179055506200034a7fce55f595624c86c7e93aa4cf15cb4a958406550ae728a9b7ffda71a7d62eca7360008051602062003043833981519152620003ef565b60005b82518110156200038957620003806000801b8483815181106200036c57fe5b60200260200101516200044160201b60201c565b6001016200034d565b5060005b8151811015620003c157620003b8600080516020620030438339815191528383815181106200036c57fe5b6001016200038d565b50505060805250506007805460ff1916905550620003e3915085905062000451565b50505050505062000609565b600082815260066020526040808220600201549051839285917fbd79b86ffe0ab8e8776151514217cd7cacd52c909f66475c3af44e129f0b00ff9190a460009182526006602052604090912060020155565b6200044d828262000467565b5050565b6005805460ff191660ff92909216919091179055565b60008281526006602090815260409091206200048e9183906200191e620004e2821b17901c565b156200044d576200049e62000502565b6001600160a01b0316816001600160a01b0316837f2f8788117e7eff1d82e926ec794901d17c78024a50270940304540a733656f0d60405160405180910390a45050565b6000620004f9836001600160a01b03841662000506565b90505b92915050565b3390565b600062000514838362000555565b6200054c57508154600181810184556000848152602080822090930184905584548482528286019093526040902091909155620004fc565b506000620004fc565b60009081526001919091016020526040902054151590565b828054600181600116156101000203166002900490600052602060002090601f016020900481019282601f10620005b057805160ff1916838001178555620005e0565b82800160010185558215620005e0579182015b82811115620005e0578251825591602001919060010190620005c3565b50620005ee929150620005f2565b5090565b5b80821115620005ee5760008155600101620005f3565b608051612a1a620006296000398061130e52806122435250612a1a6000f3fe608060405234801561001057600080fd5b50600436106102695760003560e01c806379cc679011610151578063a217fddf116100c3578063cae9ca5111610087578063cae9ca5114610885578063cd59658314610908578063d4ce141514610910578063d539139314610946578063d547741f1461094e578063dd62ed3e1461097a57610269565b8063a217fddf146107e2578063a457c2d7146107ea578063a9059cbb14610816578063aa271e1a14610842578063ca15c8731461086857610269565b806395d89b411161011557806395d89b41146107615780639711715a14610769578063981b24d014610771578063983b2d561461078e57806398650275146107b45780639944f518146107bc57610269565b806379cc6790146106a25780637f4ab1dd146106ce5780639010d07c146106ee578063906a26e01461072d57806391d148541461073557610269565b80632b9edee9116101ea5780634000aea0116101ae5780634000aea01461051657806340c10f191461059957806342966c68146105c55780634a4e629c146105e25780634ee2cd7e1461065057806370a082311461067c57610269565b80632b9edee91461046c5780632f2ff15d14610474578063313ce567146104a057806336568abe146104be57806339509351146104ea57610269565b806318f33caf1161023157806318f33caf1461037557806321c0b342146103e357806323b872dd14610411578063248a9ca31461044757806327e9083b1461046457610269565b806302d7fd921461026e57806306fdde0314610288578063095ea7b3146103055780630b26cf661461034557806318160ddd1461036d575b600080fd5b6102766109a8565b60408051918252519081900360200190f35b6102906109cc565b6040805160208082528351818301528351919283929083019185019080838360005b838110156102ca5781810151838201526020016102b2565b50505050905090810190601f1680156102f75780820380516001836020036101000a031916815260200191505b509250505060405180910390f35b6103316004803603604081101561031b57600080fd5b506001600160a01b038135169060200135610a62565b604080519115158252519081900360200190f35b61036b6004803603602081101561035b57600080fd5b50356001600160a01b0316610a80565b005b610276610b68565b61036b6004803603602081101561038b57600080fd5b810190602081018135600160201b8111156103a557600080fd5b8201836020820111156103b757600080fd5b803590602001918460208302840111600160201b831117156103d857600080fd5b509092509050610b6e565b61036b600480360360408110156103f957600080fd5b506001600160a01b0381358116916020013516610bb9565b6103316004803603606081101561042757600080fd5b506001600160a01b03813581169160208101359091169060400135610c58565b6102766004803603602081101561045d57600080fd5b5035610dd8565b610276610df0565b610331610e02565b61036b6004803603604081101561048a57600080fd5b50803590602001356001600160a01b0316610e0b565b6104a8610e77565b6040805160ff9092168252519081900360200190f35b61036b600480360360408110156104d457600080fd5b50803590602001356001600160a01b0316610e80565b6103316004803603604081101561050057600080fd5b506001600160a01b038135169060200135610ee1565b6103316004803603606081101561052c57600080fd5b6001600160a01b0382351691602081013591810190606081016040820135600160201b81111561055b57600080fd5b82018360208201111561056d57600080fd5b803590602001918460018302840111600160201b8311171561058e57600080fd5b509092509050610f34565b610331600480360360408110156105af57600080fd5b506001600160a01b03813516906020013561105b565b61036b600480360360208110156105db57600080fd5b503561110e565b61036b600480360360208110156105f857600080fd5b810190602081018135600160201b81111561061257600080fd5b82018360208201111561062457600080fd5b803590602001918460208302840111600160201b8311171561064557600080fd5b509092509050611122565b6102766004803603604081101561066657600080fd5b506001600160a01b038135169060200135611168565b6102766004803603602081101561069257600080fd5b50356001600160a01b03166111b1565b61036b600480360360408110156106b857600080fd5b506001600160a01b0381351690602001356111cc565b610290600480360360208110156106e457600080fd5b503560ff16611221565b6107116004803603604081101561070457600080fd5b50803590602001356112f4565b604080516001600160a01b039092168252519081900360200190f35b61027661130c565b6103316004803603604081101561074b57600080fd5b50803590602001356001600160a01b0316611330565b610290611348565b6102766113a9565b6102766004803603602081101561078757600080fd5b5035611448565b61036b600480360360208110156107a457600080fd5b50356001600160a01b0316611478565b61036b611490565b610331600480360360208110156107d257600080fd5b50356001600160a01b03166114b1565b6102766114cb565b6103316004803603604081101561080057600080fd5b506001600160a01b0381351690602001356114d0565b6103316004803603604081101561082c57600080fd5b506001600160a01b038135169060200135611538565b6103316004803603602081101561085857600080fd5b50356001600160a01b03166116b9565b6102766004803603602081101561087e57600080fd5b50356116d3565b6103316004803603606081101561089b57600080fd5b6001600160a01b0382351691602081013591810190606081016040820135600160201b8111156108ca57600080fd5b8201836020820111156108dc57600080fd5b803590602001918460018302840111600160201b831117156108fd57600080fd5b5090925090506116ea565b610711611817565b6104a86004803603606081101561092657600080fd5b506001600160a01b03813581169160208101359091169060400135611826565b610276611888565b61036b6004803603604081101561096457600080fd5b50803590602001356001600160a01b031661189a565b6102766004803603604081101561099057600080fd5b506001600160a01b03813581169160200135166118f3565b7f811427a0fa4932aef534bba16bc34e9b7b2d7d2a79c475fca1765f6cc1faebea81565b60038054604080516020601f6002600019610100600188161502019095169490940493840181900481028201810190925282815260609390929091830182828015610a585780601f10610a2d57610100808354040283529160200191610a58565b820191906000526020600020905b815481529060010190602001808311610a3b57829003601f168201915b5050505050905090565b6000610a76610a6f611933565b8484611937565b5060015b92915050565b6000610a8a611933565b6040518060400160405280600a81526020016937b7363c96b0b236b4b760b11b815250610ab78383611330565b8190610b415760405162461bcd60e51b81526004018080602001828103825283818151815260200191508051906020019080838360005b83811015610b06578181015183820152602001610aee565b50505050905090810190601f168015610b335780820380516001836020036101000a031916815260200191505b509250505060405180910390fd5b5050600c80546001600160a01b0319166001600160a01b0394909416939093179092555050565b60025490565b60005b81811015610bb457610bac60008051602061289b833981519152848484818110610b9757fe5b905060200201356001600160a01b0316610e0b565b600101610b71565b505050565b6000610bc3611933565b604051806040016040528060138152602001723932b9ba3934b1ba32b216ba3796b0b236b4b760691b815250610bf98383611330565b8190610c465760405162461bcd60e51b8152602060048201818152835160248401528351909283926044909101919085019080838360008315610b06578181015183820152602001610aee565b50610c518585611a23565b5050505050565b6000610c65848484611bda565b610c6e57600080fd5b600c546001600160a01b0384811691161415610dcd576040805160008082526020820192839052635260769b60e11b83526001600160a01b0387811660248401908152604484018790526060606485019081528451608486018190529289169563a4c0ed36958b958a959194939260a486019290918190849084905b83811015610d02578181015183820152602001610cea565b50505050905090810190601f168015610d2f5780820380516001836020036101000a031916815260200191505b50945050505050602060405180830381600087803b158015610d5057600080fd5b505af1158015610d64573d6000803e3d6000fd5b505050506040513d6020811015610d7a57600080fd5b5051610dcd576040805162461bcd60e51b815260206004820152601a60248201527f7472616e736665722d726566757365642d62792d627269646765000000000000604482015290519081900360640190fd5b5060015b9392505050565b6000818152600660205260409020600201545b919050565b60008051602061289b83398151915281565b60075460ff1681565b600082815260066020526040902060020154610e2e90610e29611933565b611330565b610e695760405162461bcd60e51b815260040180806020018281038252602f8152602001806127d2602f913960400191505060405180910390fd5b610e738282611c52565b5050565b60055460ff1690565b610e88611933565b6001600160a01b0316816001600160a01b031614610ed75760405162461bcd60e51b815260040180806020018281038252602f8152602001806129b6602f913960400191505060405180910390fd5b610e738282611cbb565b6000610a76610eee611933565b84610f2f8560016000610eff611933565b6001600160a01b03908116825260208083019390935260409182016000908120918c168152925290205490611d24565b611937565b6000610f408585611538565b50846001600160a01b031663a4c0ed36610f58611933565b8686866040518563ffffffff1660e01b815260040180856001600160a01b03168152602001848152602001806020018281038252848482818152602001925080828437600081840152601f19601f82011690508083019250505095505050505050602060405180830381600087803b158015610fd357600080fd5b505af1158015610fe7573d6000803e3d6000fd5b505050506040513d6020811015610ffd57600080fd5b5051611050576040805162461bcd60e51b815260206004820152601c60248201527f7472616e736665722d726566757365642d62792d726563656976657200000000604482015290519081900360640190fd5b506001949350505050565b6000600080516020612907833981519152611074611933565b604051806040016040528060138152602001723932b9ba3934b1ba32b216ba3796b0b236b4b760691b8152506110aa8383611330565b81906110f75760405162461bcd60e51b8152602060048201818152835160248401528351909283926044909101919085019080838360008315610b06578181015183820152602001610aee565b506111028686611d7e565b50600195945050505050565b61111f611119611933565b82611d88565b50565b60005b81811015610bb45761116060008051602061289b83398151915284848481811061114b57fe5b905060200201356001600160a01b031661189a565b600101611125565b6001600160a01b03821660009081526008602052604081208190819061118f908590611e84565b91509150816111a6576111a1856111b1565b6111a8565b805b95945050505050565b6001600160a01b031660009081526020819052604090205490565b6000611203826040518060600160405280602481526020016128e3602491396111fc866111f7611933565b6118f3565b9190611f81565b905061121783611211611933565b83611937565b610bb48383611d88565b606060ff821660011415611261575060408051808201909152601581527453656e646572206973206d697373696e67204b594360581b6020820152610deb565b60ff8216600214156112a7575060408051808201909152601781527f5265636569766572206973206d697373696e67204b59430000000000000000006020820152610deb565b6040805162461bcd60e51b815260206004820152601860248201527f696e76616c69642d7265737472696374696f6e2d636f64650000000000000000604482015290519081900360640190fd5b6000828152600660205260408120610dd19083611fdb565b7f000000000000000000000000000000000000000000000000000000000000000081565b6000828152600660205260408120610dd19083611fe7565b60048054604080516020601f6002600019610100600188161502019095169490940493840181900481028201810190925282815260609390929091830182828015610a585780601f10610a2d57610100808354040283529160200191610a58565b6000806113b4611933565b604051806040016040528060138152602001723932b9ba3934b1ba32b216ba3796b0b236b4b760691b8152506113ea8383611330565b81906114375760405162461bcd60e51b8152602060048201818152835160248401528351909283926044909101919085019080838360008315610b06578181015183820152602001610aee565b50611440611ffc565b935050505090565b6000806000611458846009611e84565b915091508161146e57611469610b68565b611470565b805b949350505050565b61111f60008051602061290783398151915282610e0b565b6114af6000805160206129078339815191526114aa611933565b610e80565b565b6000610a7a60008051602061289b83398151915283611330565b600081565b6000610a766114dd611933565b84610f2f856040518060600160405280602581526020016129916025913960016000611507611933565b6001600160a01b03908116825260208083019390935260409182016000908120918d16815292529020549190611f81565b60006115448383612050565b61154d57600080fd5b600c546001600160a01b0384811691161415610a7657826001600160a01b031663a4c0ed3661157a611933565b604080516000808252602082019092528691506040518463ffffffff1660e01b815260040180846001600160a01b0316815260200183815260200180602001828103825283818151815260200191508051906020019080838360005b838110156115ee5781810151838201526020016115d6565b50505050905090810190601f16801561161b5780820380516001836020036101000a031916815260200191505b50945050505050602060405180830381600087803b15801561163c57600080fd5b505af1158015611650573d6000803e3d6000fd5b505050506040513d602081101561166657600080fd5b5051610a76576040805162461bcd60e51b815260206004820152601a60248201527f7472616e736665722d726566757365642d62792d627269646765000000000000604482015290519081900360640190fd5b6000610a7a60008051602061290783398151915283611330565b6000818152600660205260408120610a7a90612064565b60006116f68585610a62565b50846001600160a01b0316638f4ffcb161170e611933565b863087876040518663ffffffff1660e01b815260040180866001600160a01b03168152602001858152602001846001600160a01b03168152602001806020018281038252848482818152602001925080828437600081840152601f19601f8201169050808301925050509650505050505050602060405180830381600087803b15801561179a57600080fd5b505af11580156117ae573d6000803e3d6000fd5b505050506040513d60208110156117c457600080fd5b5051611050576040805162461bcd60e51b815260206004820152601c60248201527f617070726f76616c2d726566757365642d62792d726563656976657200000000604482015290519081900360640190fd5b600c546001600160a01b031681565b60006001600160a01b038416158015906118465750611844846114b1565b155b1561185357506001610dd1565b6001600160a01b03831615801590611871575061186f836114b1565b155b1561187e57506002610dd1565b5060009392505050565b60008051602061290783398151915281565b6000828152600660205260409020600201546118b890610e29611933565b610ed75760405162461bcd60e51b815260040180806020018281038252603081526020018061286b6030913960400191505060405180910390fd5b6001600160a01b03918216600090815260016020908152604080832093909416825291909152205490565b6000610dd1836001600160a01b03841661206f565b3390565b6001600160a01b03831661197c5760405162461bcd60e51b815260040180806020018281038252602481526020018061296d6024913960400191505060405180910390fd5b6001600160a01b0382166119c15760405162461bcd60e51b81526004018080602001828103825260228152602001806128236022913960400191505060405180910390fd5b6001600160a01b03808416600081815260016020908152604080832094871680845294825291829020859055815185815291517f8c5be1e5ebec7d5bd14f71427d1e84f3dd0314c0f7b2291e5b200ac8c7c3b9259281900390910190a3505050565b6001600160a01b038216611ad2576040516000906001600160a01b0383169047908381818185875af1925050503d8060008114611a7c576040519150601f19603f3d011682016040523d82523d6000602084013e611a81565b606091505b5050905080611acc576040805162461bcd60e51b81526020600482015260126024820152710cae4e4dee45ac6d8c2d2dad2dcce5acae8d60731b604482015290519081900360640190fd5b50610e73565b816001600160a01b031663a9059cbb82846001600160a01b03166370a08231306040518263ffffffff1660e01b815260040180826001600160a01b0316815260200191505060206040518083038186803b158015611b2f57600080fd5b505afa158015611b43573d6000803e3d6000fd5b505050506040513d6020811015611b5957600080fd5b5051604080516001600160e01b031960e086901b1681526001600160a01b03909316600484015260248301919091525160448083019260209291908290030181600087803b158015611baa57600080fd5b505af1158015611bbe573d6000803e3d6000fd5b505050506040513d6020811015611bd457600080fd5b50505050565b6000611be78484846120b9565b610dcd84611bf3611933565b610f2f856040518060600160405280602881526020016128bb602891396001600160a01b038a16600090815260016020526040812090611c31611933565b6001600160a01b031681526020810191909152604001600020549190611f81565b6000828152600660205260409020611c6a908261191e565b15610e7357611c77611933565b6001600160a01b0316816001600160a01b0316837f2f8788117e7eff1d82e926ec794901d17c78024a50270940304540a733656f0d60405160405180910390a45050565b6000828152600660205260409020611cd39082612214565b15610e7357611ce0611933565b6001600160a01b0316816001600160a01b0316837ff6391f5c32d9c69d2a47ea670b442974b53935d1edc7fd64eb21e047a839171b60405160405180910390a45050565b600082820183811015610dd1576040805162461bcd60e51b815260206004820152601b60248201527f536166654d6174683a206164646974696f6e206f766572666c6f770000000000604482015290519081900360640190fd5b610e738282612229565b6001600160a01b038216611dcd5760405162461bcd60e51b81526004018080602001828103825260218152602001806129276021913960400191505060405180910390fd5b611dd9826000836122ac565b611e1681604051806060016040528060228152602001612801602291396001600160a01b0385166000908152602081905260409020549190611f81565b6001600160a01b038316600090815260208190526040902055600254611e3c90826122c2565b6002556040805182815290516000916001600160a01b038516917fddf252ad1be2c89b69c2b068fc378daa952ba7f163c4a11628f55a4df523b3ef9181900360200190a35050565b60008060008411611ed5576040805162461bcd60e51b815260206004820152601660248201527504552433230536e617073686f743a20696420697320360541b604482015290519081900360640190fd5b611edf600b612304565b841115611f33576040805162461bcd60e51b815260206004820152601d60248201527f4552433230536e617073686f743a206e6f6e6578697374656e74206964000000604482015290519081900360640190fd5b6000611f3f8486612308565b8454909150811415611f58576000809250925050611f7a565b6001846001018281548110611f6957fe5b906000526020600020015492509250505b9250929050565b60008184841115611fd35760405162461bcd60e51b8152602060048201818152835160248401528351909283926044909101919085019080838360008315610b06578181015183820152602001610aee565b505050900390565b6000610dd183836123a9565b6000610dd1836001600160a01b03841661240d565b6000612008600b612425565b6000612014600b612304565b6040805182815290519192507f8030e83b04d87bef53480e26263266d6ca66863aa8506aca6f2559d18aa1cb67919081900360200190a1905090565b6000610a7661205d611933565b84846120b9565b6000610a7a82612304565b600061207b838361240d565b6120b157508154600181810184556000848152602080822090930184905584548482528286019093526040902091909155610a7a565b506000610a7a565b6001600160a01b0383166120fe5760405162461bcd60e51b81526004018080602001828103825260258152602001806129486025913960400191505060405180910390fd5b6001600160a01b0382166121435760405162461bcd60e51b81526004018080602001828103825260238152602001806127af6023913960400191505060405180910390fd5b61214e8383836122ac565b61218b81604051806060016040528060268152602001612845602691396001600160a01b0386166000908152602081905260409020549190611f81565b6001600160a01b0380851660009081526020819052604080822093909355908416815220546121ba9082611d24565b6001600160a01b038084166000818152602081815260409182902094909455805185815290519193928716927fddf252ad1be2c89b69c2b068fc378daa952ba7f163c4a11628f55a4df523b3ef92918290030190a3505050565b6000610dd1836001600160a01b03841661242e565b61223382826124f4565b60075460ff1615801561226d57507f000000000000000000000000000000000000000000000000000000000000000061226a610b68565b10155b15610e73576007805460ff191660011790556040517f629c1b672a634075c61f1cbfbec5f3e47b94c3f90f065486f615ecfa18713d3490600090a15050565b6122b78383836125e4565b610bb483838361263c565b6000610dd183836040518060400160405280601e81526020017f536166654d6174683a207375627472616374696f6e206f766572666c6f770000815250611f81565b5490565b815460009061231957506000610a7a565b82546000905b8082101561236857600061233383836126af565b90508486828154811061234257fe5b9060005260206000200154111561235b57809150612362565b8060010192505b5061231f565b60008211801561239057508385600184038154811061238357fe5b9060005260206000200154145b156123a15750600019019050610a7a565b509050610a7a565b815460009082106123eb5760405162461bcd60e51b815260040180806020018281038252602281526020018061278d6022913960400191505060405180910390fd5b8260000182815481106123fa57fe5b9060005260206000200154905092915050565b60009081526001919091016020526040902054151590565b80546001019055565b600081815260018301602052604081205480156124ea578354600019808301919081019060009087908390811061246157fe5b906000526020600020015490508087600001848154811061247e57fe5b6000918252602080832090910192909255828152600189810190925260409020908401905586548790806124ae57fe5b60019003818190600052602060002001600090559055866001016000878152602001908152602001600020600090556001945050505050610a7a565b6000915050610a7a565b6001600160a01b03821661254f576040805162461bcd60e51b815260206004820152601f60248201527f45524332303a206d696e7420746f20746865207a65726f206164647265737300604482015290519081900360640190fd5b61255b600083836122ac565b6002546125689082611d24565b6002556001600160a01b03821660009081526020819052604090205461258e9082611d24565b6001600160a01b0383166000818152602081815260408083209490945583518581529351929391927fddf252ad1be2c89b69c2b068fc378daa952ba7f163c4a11628f55a4df523b3ef9281900390910190a35050565b6125ef83838361263c565b6001600160a01b03831661261357612606826126d4565b61260e6126fe565b610bb4565b6001600160a01b03821661262a57612606836126d4565b612633836126d4565b610bb4826126d4565b6000612649848484611826565b905060ff8116156126a45761265d81611221565b60405162461bcd60e51b8152602060048201818152835160248401528351909283926044909101919085019080838360008315610b06578181015183820152602001610aee565b611bd4848484610bb4565b600060028083066002850601816126c257fe5b04600283046002850401019392505050565b6001600160a01b038116600090815260086020526040902061111f906126f9836111b1565b61270b565b6114af60096126f9610b68565b6000612717600b612304565b90508061272384612757565b1015610bb4578254600180820185556000858152602080822090930193909355938401805494850181558252902090910155565b805460009061276857506000610deb565b81548290600019810190811061277a57fe5b90600052602060002001549050610deb56fe456e756d657261626c655365743a20696e646578206f7574206f6620626f756e647345524332303a207472616e7366657220746f20746865207a65726f2061646472657373416363657373436f6e74726f6c3a2073656e646572206d75737420626520616e2061646d696e20746f206772616e7445524332303a206275726e20616d6f756e7420657863656564732062616c616e636545524332303a20617070726f766520746f20746865207a65726f206164647265737345524332303a207472616e7366657220616d6f756e7420657863656564732062616c616e6365416363657373436f6e74726f6c3a2073656e646572206d75737420626520616e2061646d696e20746f207265766f6b65ce55f595624c86c7e93aa4cf15cb4a958406550ae728a9b7ffda71a7d62eca7345524332303a207472616e7366657220616d6f756e74206578636565647320616c6c6f77616e636545524332303a206275726e20616d6f756e74206578636565647320616c6c6f77616e63659f2df0fed2c77648de5860a4cc508cd0818c85b8b8a1ab4ceeef8d981c8956a645524332303a206275726e2066726f6d20746865207a65726f206164647265737345524332303a207472616e736665722066726f6d20746865207a65726f206164647265737345524332303a20617070726f76652066726f6d20746865207a65726f206164647265737345524332303a2064656372656173656420616c6c6f77616e63652062656c6f77207a65726f416363657373436f6e74726f6c3a2063616e206f6e6c792072656e6f756e636520726f6c657320666f722073656c66a2646970667358221220a367e8f4f145e8f00f5495bafe4baa19940ab9afea1993a394729b7b7830237c64736f6c634300060c0033811427a0fa4932aef534bba16bc34e9b7b2d7d2a79c475fca1765f6cc1faebea",
  "immutableReferences": {
    "201": [
      {
        "length": 32,
        "start": 4878
      },
      {
        "length": 32,
        "start": 8771
      }
    ]
  },
  "source": "// SPDX-License-Identifier: Apache-2.0\n\n/******************************************************************************\n * Copyright 2020 IEXEC BLOCKCHAIN TECH                                       *\n *                                                                            *\n * Licensed under the Apache License, Version 2.0 (the \"License\");            *\n * you may not use this file except in compliance with the License.           *\n * You may obtain a copy of the License at                                    *\n *                                                                            *\n *     http://www.apache.org/licenses/LICENSE-2.0                             *\n *                                                                            *\n * Unless required by applicable law or agreed to in writing, software        *\n * distributed under the License is distributed on an \"AS IS\" BASIS,          *\n * WITHOUT WARRANTIES OR CONDITIONS OF ANY KIND, either express or implied.   *\n * See the License for the specific language governing permissions and        *\n * limitations under the License.                                             *\n ******************************************************************************/\n\npragma solidity ^0.6.0;\n\nimport \"../interfaces/IERC677.sol\";\nimport \"../ERLC.sol\";\n\n\ncontract ERLCBridge is ERLC\n{\n    address public bridgeContract;\n\n    constructor(string memory name, string memory symbol, uint8 decimals, uint256 softcap, address[] memory admins, address[] memory kycadmins)\n    public\n    ERLC(name, symbol, softcap, admins, kycadmins)\n    {\n        _setupDecimals(decimals);\n    }\n\n    function setBridgeContract(address bridgecontract)\n    external\n    onlyRole(DEFAULT_ADMIN_ROLE, _msgSender(), \"only-admin\")\n    {\n        bridgeContract = bridgecontract;\n    }\n\n    /*************************************************************************\n     *           Overload ERC20 transfer to enforce call to bridge           *\n     *************************************************************************/\n    function transfer(address recipient, uint256 amount)\n    public virtual override returns (bool)\n    {\n        require(super.transfer(recipient, amount));\n        if (recipient == bridgeContract)\n        {\n            require(IERC677Receiver(recipient).onTokenTransfer(_msgSender(), amount, new bytes(0)), \"transfer-refused-by-bridge\");\n        }\n        return true;\n    }\n\n    function transferFrom(address sender, address recipient, uint256 amount)\n    public virtual override returns (bool)\n    {\n        require(super.transferFrom(sender, recipient, amount));\n        if (recipient == bridgeContract)\n        {\n            require(IERC677Receiver(recipient).onTokenTransfer(sender, amount, new bytes(0)), \"transfer-refused-by-bridge\");\n        }\n        return true;\n    }\n\n    /*************************************************************************\n     *                          Mintable - Burnable                          *\n     *************************************************************************/\n    bytes32 public constant MINTER_ROLE  = keccak256(\"MINTER_ROLE\");\n\n    function isMinter(address account)\n    public view returns (bool)\n    {\n        return hasRole(MINTER_ROLE, account);\n    }\n\n    function addMinter(address account)\n    public virtual\n    {\n        grantRole(MINTER_ROLE, account);\n    }\n\n    function renounceMinter()\n    public virtual\n    {\n        renounceRole(MINTER_ROLE, _msgSender());\n    }\n\n    function mint(address account, uint256 amount)\n    public virtual\n    onlyRole(MINTER_ROLE, _msgSender(), \"restricted-to-admin\")\n    returns (bool)\n    {\n        _mint(account, amount);\n        return true;\n    }\n\n    function burn(uint256 amount)\n    public virtual\n    {\n        _burn(_msgSender(), amount);\n    }\n\n    function burnFrom(address account, uint256 amount)\n    public virtual\n    {\n        uint256 decreasedAllowance = allowance(account, _msgSender()).sub(amount, \"ERC20: burn amount exceeds allowance\");\n        _approve(account, _msgSender(), decreasedAllowance);\n        _burn(account, amount);\n    }\n}\n",
  "sourcePath": "/home/amxx/Work/iExec/code/eRLC/contracts/wip/ERLCBridge.sol",
  "compiler": {
    "name": "solc",
    "version": "0.6.12+commit.27d51765.Emscripten.clang"
  },
  "schemaVersion": "3.3.2",
  "updatedAt": "2021-01-11T10:31:27.970Z",
  "devdoc": {
    "kind": "dev",
    "methods": {
      "allowance(address,address)": {
        "details": "See {IERC20-allowance}."
      },
      "approve(address,uint256)": {
        "details": "See {IERC20-approve}. Requirements: - `spender` cannot be the zero address."
      },
      "balanceOf(address)": {
        "details": "See {IERC20-balanceOf}."
      },
      "balanceOfAt(address,uint256)": {
        "details": "Retrieves the balance of `account` at the time `snapshotId` was created."
      },
      "decimals()": {
        "details": "Returns the number of decimals used to get its user representation. For example, if `decimals` equals `2`, a balance of `505` tokens should be displayed to a user as `5,05` (`505 / 10 ** 2`). Tokens usually opt for a value of 18, imitating the relationship between Ether and Wei. This is the value {ERC20} uses, unless {_setupDecimals} is called. NOTE: This information is only used for _display_ purposes: it in no way affects any of the arithmetic of the contract, including {IERC20-balanceOf} and {IERC20-transfer}."
      },
      "decreaseAllowance(address,uint256)": {
        "details": "Atomically decreases the allowance granted to `spender` by the caller. This is an alternative to {approve} that can be used as a mitigation for problems described in {IERC20-approve}. Emits an {Approval} event indicating the updated allowance. Requirements: - `spender` cannot be the zero address. - `spender` must have allowance for the caller of at least `subtractedValue`."
      },
      "getRoleAdmin(bytes32)": {
        "details": "Returns the admin role that controls `role`. See {grantRole} and {revokeRole}. To change a role's admin, use {_setRoleAdmin}."
      },
      "getRoleMember(bytes32,uint256)": {
        "details": "Returns one of the accounts that have `role`. `index` must be a value between 0 and {getRoleMemberCount}, non-inclusive. Role bearers are not sorted in any particular way, and their ordering may change at any point. WARNING: When using {getRoleMember} and {getRoleMemberCount}, make sure you perform all queries on the same block. See the following https://forum.openzeppelin.com/t/iterating-over-elements-on-enumerableset-in-openzeppelin-contracts/2296[forum post] for more information."
      },
      "getRoleMemberCount(bytes32)": {
        "details": "Returns the number of accounts that have `role`. Can be used together with {getRoleMember} to enumerate all bearers of a role."
      },
      "grantRole(bytes32,address)": {
        "details": "Grants `role` to `account`. If `account` had not been already granted `role`, emits a {RoleGranted} event. Requirements: - the caller must have ``role``'s admin role."
      },
      "hasRole(bytes32,address)": {
        "details": "Returns `true` if `account` has been granted `role`."
      },
      "increaseAllowance(address,uint256)": {
        "details": "Atomically increases the allowance granted to `spender` by the caller. This is an alternative to {approve} that can be used as a mitigation for problems described in {IERC20-approve}. Emits an {Approval} event indicating the updated allowance. Requirements: - `spender` cannot be the zero address."
      },
      "name()": {
        "details": "Returns the name of the token."
      },
      "renounceRole(bytes32,address)": {
        "details": "Revokes `role` from the calling account. Roles are often managed via {grantRole} and {revokeRole}: this function's purpose is to provide a mechanism for accounts to lose their privileges if they are compromised (such as when a trusted device is misplaced). If the calling account had been granted `role`, emits a {RoleRevoked} event. Requirements: - the caller must be `account`."
      },
      "revokeRole(bytes32,address)": {
        "details": "Revokes `role` from `account`. If `account` had been granted `role`, emits a {RoleRevoked} event. Requirements: - the caller must have ``role``'s admin role."
      },
      "symbol()": {
        "details": "Returns the symbol of the token, usually a shorter version of the name."
      },
      "totalSupply()": {
        "details": "See {IERC20-totalSupply}."
      },
      "totalSupplyAt(uint256)": {
        "details": "Retrieves the total supply at the time `snapshotId` was created."
      },
      "transfer(address,uint256)": {
        "details": "Moves `amount` tokens from the caller's account to `recipient`. Returns a boolean value indicating whether the operation succeeded. Emits a {Transfer} event."
      },
      "transferFrom(address,address,uint256)": {
        "details": "Moves `amount` tokens from `sender` to `recipient` using the allowance mechanism. `amount` is then deducted from the caller's allowance. Returns a boolean value indicating whether the operation succeeded. Emits a {Transfer} event."
      }
    },
    "version": 1
  },
  "userdoc": {
    "kind": "user",
    "methods": {},
    "version": 1
  }
}